:020000040000FA
:1000000068020010650100006D0100006F01000032
:1000100000000000000000000000000000000000E0
:10002000000000000000000000000000710100005E
:1000300000000000000000007301000075010000D6
:1000400077010000770100007701000077010000D0
:1000500077010000770100007701000077010000C0
:1000600077010000770100007701000077010000B0
:1000700077010000770100007701000077010000A0
:10008000D5030000010300007701000077010000A4
:100090007701000077010000770100007701000080
:1000A0007701000077010000770100007701000070
:1000B0007701000077010000770100007701000060
:1000C00000F002F800F03EF80CA030C80838241800
:1000D0002D18A246671EAB4654465D46AC4201D180
:1000E00000F030F87E460F3E0FCCB6460126334274
:1000F00000D0FB1AA246AB4633431847FC0700006A
:100100001C080000103A02D378C878C1FAD8520708
:1001100001D330C830C101D504680C6070470000BD
:100120000023002400250026103A01D378C1FBD813
:10013000520700D330C100D50B6070471FB51FBDFB
:1001400010B510BD00F0A0FB1146FFF7F7FF00F05F
:1001500061F900F0B8FB03B4FFF7F2FF03BC00F055
:10016000BDFB00000748804707480047FEE7FEE761
:10017000FEE7FEE7FEE7FEE704480549034A054BB4
:100180007047000039050000C10000006800001041
:100190006802001068000010124800681249084305
:1001A0001049086008201149486111480068102171
:1001B00008430F4908600F48C06B102188430D4960
:1001C000C8637047002806D00A49C96B1022114342
:1001D000084AD16305E00749C96B10229143054ADB
:1001E000D16370478080044040000100804004409B
:1001F00000800150C03F0150154800681549084370
:1002000013490860102014498860886212494031FF
:10021000C86111498031C8600F49403108604860A9
:100220000D490860086248620B49403148618861A5
:1002300008630A480A49086070470F2900DD7047C3
:100240000202084B5B5C1A43074BDA6300BFF6E718
:10025000808004404000010000400440FF0F000087
:1002600000800250E8080000C03F02500C480068BF
:100270000C4908430A49086008200B494860886017
:10028000C861C86208498039C86307494039886035
:100290000648006838210843044908607047000098
:1002A00080800440400001008040044000800350F2
:1002B0000C4800680C4908430A49086008200B49AB
:1002C00088630B480068491508430949086070476E
:1002D00000200849C8637047012040020549C863EF
:1002E000704700008080044040000100004004404E
:1002F00000800150C03F015070470000FFFFFFFF2A
:1003000010B5002482480078002805D18148017882
:100310000120FFF792FF1CE07D480078012805D1FD
:100320007C4841780220FFF788FF12E07848007887
:10033000022805D1774881780420FFF77EFF08E086
:1003400073480078032804D17248C1780820FFF769
:1003500074FF6F480078401C6D4908700878C11719
:10036000890F091889108900411A694A1170012002
:100370006949086000242AE06848C06BE11C01223A
:100380008A4090436549C8630846C06B4007400FE8
:1003900007214840012804D0022806D004280CD1A7
:1003A00007E0601C5E49087007E0201D5C4908708A
:1003B00003E0E01D5A49087000BF00BF5748C06BFA
:1003C000E11C01228A4010435449C863641C032C79
:1003D000D2DB10BD10B553480078401C514908705D
:1003E0003C215048007800F0A9F9002907D10020ED
:1003F0004C4908704C480078401C4B4908704A48EA
:1004000000783C2802DB002047490870012047495A
:10041000086010BD08B50025002600BFFFF748FFA3
:10042000FFF724FFFFF7E8FEFFF7B6FE00F03AF90A
:10043000052000F005F9642000F0E7F867E00024EB
:10044000002525E03A48006801210906084338499B
:10045000086000BF36484069C00FC0070028F9D0C7
:10046000334800680121090608433149086000BF8C
:100470002F484069C00FC0070028F9D02C484069B8
:10048000009000980004800D0090009824186D1CC6
:100490000A2DD7DB0A21204600F046F904462548FC
:1004A0006043840A0A21204600F03EF91948017091
:1004B0000A21204600F038F907466421204600F062
:1004C00033F90A214843381A1249487064212046FA
:1004D00000F02AF907467D21C900204600F024F9E2
:1004E0000A214843381A0B4988707D21C9002046EB
:1004F00000F01AF90749C870C82000F078F8002EFB
:1005000002D0FFF7E5FE01E0FFF7E6FEF64396E7CF
:10051000000000100100001000000140C03F035027
:1005200007000010060000100500001000C0004089
:1005300000C00140E40C00000F48806BA0218843FC
:100540000D49886301200D490860002048600120A2
:100550004860232009494039886000BF0748403877
:10056000C0680028FAD003200449086300204863CB
:10057000012048637047000000820440408004402E
:1005800010B5002819DA404A03071B0F083B9B08E7
:100590009B00D2588307DC0EFF23A3409A438B07AE
:1005A0001B0E8407E40EA3401A43374B0407240FA5
:1005B000083CA408A4001A5118E0344A03231B0283
:1005C000D21883089B00D2588307DC0EFF23A34078
:1005D0009A438B071B0E8407E40EA3401A432B4B50
:1005E000032424021B198408A4001A5110BD0146DB
:1005F000002005E0002000E0401C254A9042FBD38B
:100600000A46491E002AF5D1704710B50446214814
:100610000068802108431F49086001201E490860C6
:100620001E48C86003204861601E88610120486040
:10063000102000F022F801211020FFF7A1FF10BDCB
:1006400010B5044613480068FF21013108431149E1
:1006500008600120124908601048401EC86003204D
:1006600048610846846101204860112000F005F8C7
:1006700002211120FFF784FF10BDC206D20E012116
:100680009140024A116070471CED00E000E100E07B
:10069000881300008080044000C0004080BB000040
:1006A000000001401B480068012109040843194962
:1006B00008601948806BC008C00017498863084665
:1006C000806B02210843144988630846806B182117
:1006D0008843114988630846806B802188430E490E
:1006E00088630E48806B102188430C498863094851
:1006F0000068012149030843064908600848094980
:100700000860044800680121090488430149086021
:100710007047000080800440404004400082044054
:10072000022F000000C00140002203098B422CD39D
:10073000030A8B4211D300239C464EE003460B4331
:100740003CD4002243088B4231D303098B421CD393
:10075000030A8B4201D394463FE0C3098B4201D385
:10076000CB01C01A524183098B4201D38B01C01ABD
:10077000524143098B4201D34B01C01A5241030934
:100780008B4201D30B01C01A5241C3088B4201D3E3
:10079000CB00C01A524183088B4201D38B00C01A90
:1007A000524143088B4201D34B00C01A5241411AB7
:1007B00000D201465241104670475DE0CA0F00D09A
:1007C0004942031000D34042534000229C46030993
:1007D0008B422DD3030A8B4212D3FC22890112BA19
:1007E000030A8B420CD3890192118B4208D38901F1
:1007F00092118B4204D389013AD0921100E0890909
:10080000C3098B4201D3CB01C01A524183098B42E9
:1008100001D38B01C01A524143098B4201D34B01D2
:10082000C01A524103098B4201D30B01C01A524135
:10083000C3088B4201D3CB00C01A524183088B42BC
:1008400001D38B00C01A5241D9D243088B4201D345
:100850004B00C01A5241411A00D201466346524130
:100860005B10104601D34042002B00D5494270472F
:1008700063465B1000D3404201B50020C046C0462D
:1008800002BD704770477047754600F023F8AE46CA
:10089000050069465346C008C000854618B020B51B
:1008A000FFF76AFC60BC00274908B6460026C0C5B1
:1008B000C0C5C0C5C0C5C0C5C0C5C0C5C0C5403D18
:1008C00049008D4670470446C046C0462046FFF7A3
:1008D00042FC000000487047080000100149182041
:1008E000ABBEFEE726000200C0F9A4B0999282F8E0
:1008F00080908883C6A1868E180900000000001031
:100900000800000004010000200900000800001099
:100910006002000020010000000000000000000153
:04000005000000C136
:00000001FF
